:100000000C9446000C945D000C945D000C945D0013
:100010000C945D000C945D000C945D000C945D00EC
:100020000C945D000C945D000C945D000C945D00DC
:100030000C945D000C945D000C945D000C945D00CC
:100040000C945D000C945D000C945D000C945D00BC
:100050000C945D000C945D000C945D000C945D00AC
:100060000C945D000C945D000C945D000C945D009C
:100070000C945D000C945D000C945D000C945D008C
:100080000C945D000C945D000C945D0011241FBE67
:10009000CFEFD0E4DEBFCDBF11E0A0E0B1E0EAE3F6
:1000A000F2E000E00BBF02C007900D92AE30B10746
:1000B000D9F70E9488000C941B010C940000CF9388
:1000C000DF9300D01F92CDB7DEB789837B836A832D
:1000D00089818A3031F48A819B81BC018DE00E9444
:1000E0005F0080EC90E0FC018081882F90E08072BE
:1000F00099270097B1F386EC90E02981FC012083D9
:1001000080E090E00F900F900F90DF91CF910895D5
:10011000CF93DF93CDB7DEB728970FB6F894DEBF45
:100120000FBECDBF81E290E0FC01108282E290E040
:100130002FEFFC01208384E290E0FC01108285E235
:1001400090E02FEFFC01208387E290E0FC01108219
:1001500088E290E02FEFFC0120838AE290E02FEF0D
:10016000FC0120838BE290E0FC01108280E290E0B1
:10017000FC0180818C8383E290E0FC0180818D838F
:1001800086E290E0FC0180818E839C818E818917BC
:1001900068F48C81282F30E08E81882F90E0A901AF
:1001A000481B590BCA019B838A8313C09E818C8193
:1001B000891768F48E81282F30E08C81882F90E099
:1001C000F901E81BF90BCF019B838A8302C01B82D4
:1001D0001A828C81282F30E08D81882F90E0280FA3
:1001E000391F8E81882F90E0820F931F98878F830D
:1001F0008F819885929582958F7089279F70892726
:1002000089838981880F880F89838F8198858D38AC
:10021000910518F08981816089838A819B8181356C
:10022000910518F08981826089838BE290E02981B1
:0A023000FC0120839BCFF894FFCF60
:0E023A0000000002000000005F000000000055
:00000001FF
